{
  "contractName": "KuiperDatabase",
  "abi": [
    {
      "constant": true,
      "inputs": [
        {
          "name": "",
          "type": "uint256"
        }
      ],
      "name": "expertAccounts",
      "outputs": [
        {
          "name": "",
          "type": "address"
        }
      ],
      "payable": false,
      "stateMutability": "view",
      "type": "function"
    },
    {
      "constant": true,
      "inputs": [
        {
          "name": "",
          "type": "address"
        }
      ],
      "name": "confirmationCount",
      "outputs": [
        {
          "name": "",
          "type": "uint256"
        }
      ],
      "payable": false,
      "stateMutability": "view",
      "type": "function"
    },
    {
      "constant": true,
      "inputs": [
        {
          "name": "",
          "type": "address"
        }
      ],
      "name": "isExpert",
      "outputs": [
        {
          "name": "",
          "type": "bool"
        }
      ],
      "payable": false,
      "stateMutability": "view",
      "type": "function"
    },
    {
      "constant": true,
      "inputs": [],
      "name": "owner",
      "outputs": [
        {
          "name": "",
          "type": "address"
        }
      ],
      "payable": false,
      "stateMutability": "view",
      "type": "function"
    },
    {
      "inputs": [],
      "payable": false,
      "stateMutability": "nonpayable",
      "type": "constructor"
    },
    {
      "anonymous": false,
      "inputs": [
        {
          "indexed": true,
          "name": "_expert",
          "type": "address"
        },
        {
          "indexed": true,
          "name": "_observationId",
          "type": "uint256"
        }
      ],
      "name": "NewObservation",
      "type": "event"
    },
    {
      "anonymous": false,
      "inputs": [
        {
          "indexed": true,
          "name": "_observer",
          "type": "address"
        },
        {
          "indexed": true,
          "name": "_observationId",
          "type": "uint256"
        }
      ],
      "name": "NewConfirmation",
      "type": "event"
    },
    {
      "constant": false,
      "inputs": [
        {
          "name": "_url",
          "type": "string"
        }
      ],
      "name": "addNewObservation",
      "outputs": [],
      "payable": false,
      "stateMutability": "nonpayable",
      "type": "function"
    },
    {
      "constant": false,
      "inputs": [
        {
          "name": "_observationId",
          "type": "uint256"
        }
      ],
      "name": "confirmObservation",
      "outputs": [],
      "payable": false,
      "stateMutability": "nonpayable",
      "type": "function"
    },
    {
      "constant": true,
      "inputs": [],
      "name": "getObservationCount",
      "outputs": [
        {
          "name": "",
          "type": "uint256"
        }
      ],
      "payable": false,
      "stateMutability": "view",
      "type": "function"
    },
    {
      "constant": true,
      "inputs": [
        {
          "name": "_observationId",
          "type": "uint256"
        }
      ],
      "name": "getObservation",
      "outputs": [
        {
          "name": "expert",
          "type": "address"
        },
        {
          "name": "url",
          "type": "string"
        },
        {
          "name": "confirmations",
          "type": "address[]"
        }
      ],
      "payable": false,
      "stateMutability": "view",
      "type": "function"
    },
    {
      "constant": true,
      "inputs": [],
      "name": "getExpertCount",
      "outputs": [
        {
          "name": "",
          "type": "uint256"
        }
      ],
      "payable": false,
      "stateMutability": "view",
      "type": "function"
    },
    {
      "constant": true,
      "inputs": [
        {
          "name": "_index",
          "type": "uint256"
        }
      ],
      "name": "getExpertAddress",
      "outputs": [
        {
          "name": "",
          "type": "address"
        }
      ],
      "payable": false,
      "stateMutability": "view",
      "type": "function"
    },
    {
      "constant": false,
      "inputs": [
        {
          "name": "_amateur",
          "type": "address"
        }
      ],
      "name": "promoteAmateur",
      "outputs": [],
      "payable": false,
      "stateMutability": "nonpayable",
      "type": "function"
    }
  ],
  "bytecode": "0x608060405234801561001057600080fd5b50336000806101000a81548173ffffffffffffffffffffffffffffffffffffffff021916908373ffffffffffffffffffffffffffffffffffffffff16021790555060013390806001815401808255809150509060018203906000526020600020016000909192909190916101000a81548173ffffffffffffffffffffffffffffffffffffffff021916908373ffffffffffffffffffffffffffffffffffffffff160217905550506001600260003373ffffffffffffffffffffffffffffffffffffffff1673ffffffffffffffffffffffffffffffffffffffff16815260200190815260200160002060006101000a81548160ff021916908315150217905550610e1c8061011e6000396000f3fe6080604052600436106100af576000357c0100000000000000000000000000000000000000000000000000000000900463ffffffff1680630f405af4146100b45780633180f410146100df5780633d9a42df1461015a578063562a17f4146101bf57806376c535ae1461023a57806389818834146102a35780638da5cb5b1461036b578063e4291dd7146103c2578063f0c572e014610413578063f5fec8b11461044e578063f6666eb21461057d575b600080fd5b3480156100c057600080fd5b506100c96105a8565b6040518082815260200191505060405180910390f35b3480156100eb57600080fd5b506101186004803603602081101561010257600080fd5b81019080803590602001909291905050506105b5565b604051808273ffffffffffffffffffffffffffffffffffffffff1673ffffffffffffffffffffffffffffffffffffffff16815260200191505060405180910390f35b34801561016657600080fd5b506101a96004803603602081101561017d57600080fd5b81019080803573ffffffffffffffffffffffffffffffffffffffff1690602001909291905050506105f3565b6040518082815260200191505060405180910390f35b3480156101cb57600080fd5b506101f8600480360360208110156101e257600080fd5b810190808035906020019092919050505061060b565b604051808273ffffffffffffffffffffffffffffffffffffffff1673ffffffffffffffffffffffffffffffffffffffff16815260200191505060405180910390f35b34801561024657600080fd5b506102896004803603602081101561025d57600080fd5b81019080803573ffffffffffffffffffffffffffffffffffffffff16906020019092919050505061064e565b604051808215151515815260200191505060405180910390f35b3480156102af57600080fd5b50610369600480360360208110156102c657600080fd5b81019080803590602001906401000000008111156102e357600080fd5b8201836020820111156102f557600080fd5b8035906020019184600183028401116401000000008311171561031757600080fd5b91908080601f016020809104026020016040519081016040528093929190818152602001838380828437600081840152601f19601f82011690508083019250505050505050919291929050505061066e565b005b34801561037757600080fd5b506103806107ff565b604051808273ffffffffffffffffffffffffffffffffffffffff1673ffffffffffffffffffffffffffffffffffffffff16815260200191505060405180910390f35b3480156103ce57600080fd5b50610411600480360360208110156103e557600080fd5b81019080803573ffffffffffffffffffffffffffffffffffffffff169060200190929190505050610824565b005b34801561041f57600080fd5b5061044c6004803603602081101561043657600080fd5b81019080803590602001909291905050506109c3565b005b34801561045a57600080fd5b506104876004803603602081101561047157600080fd5b8101908080359060200190929190505050610bc6565b604051808473ffffffffffffffffffffffffffffffffffffffff1673ffffffffffffffffffffffffffffffffffffffff1681526020018060200180602001838103835285818151815260200191508051906020019080838360005b838110156104fd5780820151818401526020810190506104e2565b50505050905090810190601f16801561052a5780820380516001836020036101000a031916815260200191505b50838103825284818151815260200191508051906020019060200280838360005b8381101561056657808201518184015260208101905061054b565b505050509050019550505050505060405180910390f35b34801561058957600080fd5b50610592610d41565b6040518082815260200191505060405180910390f35b6000600180549050905090565b6001818154811015156105c457fe5b906000526020600020016000915054906101000a900473ffffffffffffffffffffffffffffffffffffffff1681565b60046020528060005260406000206000915090505481565b600060018281548110151561061c57fe5b9060005260206000200160009054906101000a900473ffffffffffffffffffffffffffffffffffffffff169050919050565b60026020528060005260406000206000915054906101000a900460ff1681565b600260003373ffffffffffffffffffffffffffffffffffffffff1673ffffffffffffffffffffffffffffffffffffffff16815260200190815260200160002060009054906101000a900460ff16151561072f576040517f08c379a00000000000000000000000000000000000000000000000000000000081526004018080602001828103825260178152602001807f53656e646572206973206e6f7420616e2065787065727400000000000000000081525060200191505060405180910390fd5b600160036000828254019250508190555060006005600060035481526020019081526020016000209050338160000160006101000a81548173ffffffffffffffffffffffffffffffffffffffff021916908373ffffffffffffffffffffffffffffffffffffffff160217905550818160010190805190602001906107b4929190610d4b565b506003543373ffffffffffffffffffffffffffffffffffffffff167fc501d8eddc251387678272e3b8f5ebda6178b8724e38ded22004ee2db16a3e9460405160405180910390a35050565b6000809054906101000a900473ffffffffffffffffffffffffffffffffffffffff1681565b6003600460008373ffffffffffffffffffffffffffffffffffffffff1673ffffffffffffffffffffffffffffffffffffffff1681526020019081526020016000205410151515610902576040517f08c379a00000000000000000000000000000000000000000000000000000000081526004018080602001828103825260388152602001807f416d617475657220646f6573206e6f742068617665206174206c65617374203381526020017f20636f6e6669726d656420636f6e736572766174696f6e73000000000000000081525060400191505060405180910390fd5b60018190806001815401808255809150509060018203906000526020600020016000909192909190916101000a81548173ffffffffffffffffffffffffffffffffffffffff021916908373ffffffffffffffffffffffffffffffffffffffff160217905550506001600260008373ffffffffffffffffffffffffffffffffffffffff1673ffffffffffffffffffffffffffffffffffffffff16815260200190815260200160002060006101000a81548160ff02191690831515021790555050565b60006005600083815260200190815260200160002090503373ffffffffffffffffffffffffffffffffffffffff168160000160009054906101000a900473ffffffffffffffffffffffffffffffffffffffff1673ffffffffffffffffffffffffffffffffffffffff1614151515610ac8576040517f08c379a00000000000000000000000000000000000000000000000000000000081526004018080602001828103825260398152602001807f457870657274206973206e6f74207065726d697474656420746f20636f6e666981526020017f726d207468656972206f776e206f62736572766174696f6e730000000000000081525060400191505060405180910390fd5b806002013390806001815401808255809150509060018203906000526020600020016000909192909190916101000a81548173ffffffffffffffffffffffffffffffffffffffff021916908373ffffffffffffffffffffffffffffffffffffffff160217905550506001600460003373ffffffffffffffffffffffffffffffffffffffff1673ffffffffffffffffffffffffffffffffffffffff16815260200190815260200160002060008282540192505081905550813373ffffffffffffffffffffffffffffffffffffffff167fabc30b10ac70c9b01f1d66a4567d6da517b73c0029614e79242dde3edb9b31bc60405160405180910390a35050565b600060608060006005600086815260200190815260200160002090508060000160009054906101000a900473ffffffffffffffffffffffffffffffffffffffff168160010182600201818054600181600116156101000203166002900480601f016020809104026020016040519081016040528092919081815260200182805460018160011615610100020316600290048015610ca45780601f10610c7957610100808354040283529160200191610ca4565b820191906000526020600020905b815481529060010190602001808311610c8757829003601f168201915b5050505050915080805480602002602001604051908101604052809291908181526020018280548015610d2c57602002820191906000526020600020905b8160009054906101000a900473ffffffffffffffffffffffffffffffffffffffff1673ffffffffffffffffffffffffffffffffffffffff1681526020019060010190808311610ce2575b50505050509050935093509350509193909250565b6000600354905090565b828054600181600116156101000203166002900490600052602060002090601f016020900481019282601f10610d8c57805160ff1916838001178555610dba565b82800160010185558215610dba579182015b82811115610db9578251825591602001919060010190610d9e565b5b509050610dc79190610dcb565b5090565b610ded91905b80821115610de9576000816000905550600101610dd1565b5090565b9056fea165627a7a7230582059370dd5fbef0be6c8da9663df80c88cea83498134e5112a15923fc519840b110029",
  "source": "pragma solidity >=0.4.21 <0.6.0;\n\ncontract KuiperDatabase {\n  event NewObservation(address indexed _expert, uint indexed _observationId);\n  event NewConfirmation(address indexed _observer, uint indexed _observationId);\n\n  address public owner;\n  address[] public expertAccounts; // maintains a record of all experts\n  mapping(address => bool) public isExpert; // used to restrict functions to use by experts\n  uint observationNonce; // used to provide each observation with a unique observationId\n  mapping(address => uint) public confirmationCount; // used to determine how many onbservations each amateur has confirmed\n\n  struct Observation {\n    address expert;\n    string url;\n    address[] confirmations; // addresses of those who \"confirm\" the observation\n  }\n  mapping(uint => Observation) observations;\n  \n  constructor() public {\n    owner = msg.sender;\n    expertAccounts.push(msg.sender);\n    isExpert[msg.sender] = true;\n  }\n\n  modifier restricted() {\n    if (msg.sender == owner) _;\n  }\n\n  function addNewObservation(string memory _url) public {\n    require(isExpert[msg.sender], \"Sender is not an expert\");\n    observationNonce += 1;\n    Observation storage newObservation = observations[observationNonce];\n    newObservation.expert = msg.sender;\n    newObservation.url = _url;\n    emit NewObservation(msg.sender, observationNonce);\n  }\n\n  function confirmObservation(uint _observationId) public {\n    // obtain the specific observation using the observation ID.\n    Observation storage observation = observations[_observationId];\n    // prevent expert from confirming their own observation\n    require(observation.expert != msg.sender, \"Expert is not permitted to confirm their own observations\");\n    // add address of observer to the confirmations array for observation\n    observation.confirmations.push(msg.sender);\n    // increment the amateurs confirmation count by 1\n    confirmationCount[msg.sender] += 1;\n    emit NewConfirmation(msg.sender, _observationId);\n  }\n\n  function getObservationCount() public view returns (uint) {\n    // returns total number of observations\n    return observationNonce;\n  }\n\n  function getObservation(uint _observationId) public view returns (address expert, string memory url, address[] memory confirmations) {\n    Observation storage observation = observations[_observationId];\n\n    return (observation.expert, observation.url, observation.confirmations);\n  }\n\n  function getExpertCount() public view returns (uint) {\n    return expertAccounts.length;\n  }\n\n  function getExpertAddress(uint _index) public view returns (address) {\n    return expertAccounts[_index];\n  }\n\n  function promoteAmateur(address _amateur) public {\n    require(confirmationCount[_amateur] >= 3, \"Amatuer does not have at least 3 confirmed conservations\");\n    // add the amatrus address to the expert accounts array\n    expertAccounts.push(_amateur);\n    isExpert[_amateur] = true;\n  }\n}",
  "sourcePath": "/Users/johngribbin/repos/kuiper-testnet-database/contracts/KuiperDatabase.sol",
  "compiler": {
    "name": "solc",
    "version": "0.5.0+commit.1d4f565a.Emscripten.clang"
  },
  "schemaVersion": "3.0.9",
  "updatedAt": "2019-05-15T21:35:55.906Z",
  "devdoc": {
    "methods": {}
  },
  "userdoc": {
    "methods": {}
  }
}